S01300004B6E6967687472696465722E7372656396
S11300000C9434000C943E000C943E000C943E007E
S11300100C943E000C943E000C943E000C943E0064
S11300200C943E000C943E000C943E000C943E0054
S11300300C943E000C943E000C943E000C943E0044
S11300400C943E000C943E000C943E000C943E0034
S11300500C943E000C943E000C943E000C943E0024
S11300600C943E000C943E0011241FBECFEFD8E048
S1130070DEBFCDBF0E9440000C946C000C940000C5
S113008084B18E6384B9299892E085B1892785B9B2
S113009024E030E085B1880F85B94FEF54E38CE05C
S11300A0415050408040E1F700C000002150310928
S11300B089F724E030E085B1869585B94FEF54E3A4
S11300C08CE0415050408040E1F700C000002150D6
S10F00D0310989F72998D9CFF894FFCFA3
S9030000FC
