S01300004B6E6967687472696465722E7372656396
S11300000C9434000C943E000C943E000C943E007E
S11300100C943E000C943E000C943E000C943E0064
S11300200C943E000C943E000C943E000C943E0054
S11300300C943E000C943E000C943E000C943E0044
S11300400C943E000C943E000C943E000C943E0034
S11300500C943E000C943E000C943E000C943E0024
S11300600C943E000C943E0011241FBECFEFD8E048
S1130070DEBFCDBF0E9481000C9444010C940000AB
S1130080FC01408121E030E002C0220F331F6A9559
S1130090E2F7242B20830895FC01808121E030E0E5
S11300A002C0220F331F6A95E2F7922F909589239D
S11300B0808380818181282B21830895FC01908194
S11300C021E030E002C0220F331F6A95E2F7209549
S11300D0292320830895FC01408121E030E002C0FF
S11300E0220F331F6A95E2F7242720830895FC0129
S11300F0808190E002C0959587956A95E2F78170BA
S1130100089561E084E290E00E94400062E084E2AD
S113011090E00E94400063E084E290E00E9440008E
S113012064E084E290E00E94400065E084E290E0B4
S11301300E94400061E085E290E00E945E0060E081
S11301408AE290E00E944C0060E089E290E00E9424
S113015077008111F9CF61E085E290E00E946B00A5
S11301602FEF84E39CE0215080409040E1F700C0F1
S1130170000061E085E290E00E946B0062E085E2AD
S113018090E00E946B002FEF84E39CE021508040BC
S11301909040E1F700C0000062E085E290E00E9438
S11301A06B0063E085E290E00E946B002FEF84E334
S11301B09CE0215080409040E1F700C0000063E0E3
S11301C085E290E00E946B0064E085E290E00E948A
S11301D06B002FEF84E39CE0215080409040E1F7D6
S11301E000C0000064E085E290E00E946B0065E0DE
S11301F085E290E00E946B002FEF84E39CE02150A5
S113020080409040E1F700C0000065E085E290E0A6
S11302100E946B0064E085E290E00E946B002FEF87
S113022084E39CE0215080409040E1F700C000004E
S113023064E085E290E00E946B0063E085E290E078
S11302400E946B002FEF84E39CE02150804090409B
S1130250E1F700C0000063E085E290E00E946B00DB
S113026062E085E290E00E946B002FEF84E39CE063
S1130270215080409040E1F700C0000062E085E238
S10F028090E00E946B0060CFF894FFCF68
S9030000FC
