S00F000030372D756172742E73726563C5
S11300000C9434000C9451000C9451000C94510045
S11300100C9451000C9451000C9451000C94510018
S11300200C9451000C9451000C9451000C94510008
S11300300C9451000C9432010C9451000C94510016
S11300400C9451000C9451000C9471020C949F0276
S11300500C9451000C9447010C9451000C945100E1
S11300600C9451000C94510011241FBECFEFD8E022
S1130070DEBFCDBF11E0A0E0B1E0EAE7F6E002C0E8
S113008005900D92AC35B107D9F721E0ACE5B1E0AC
S113009001C01D92A33EB207E1F70E94F6000C9442
S11300A03B030C940000299A85E08A95F1F700003F
S11300B029980895CF93C82F662311F0289A01C078
S11300C02898549A559A569A579A5F985E985D98CC
S11300D05C98CC230CF45F9AC6FD5E9AC5FD5D9ACC
S11300E0C4FD5C9A0E9453005F985E985D985C988A
S11300F0C3FD5F9AC2FD5E9AC1FD5D9AC0FD5C9A24
S11301000E9453005C9A5D9A5E9A5F9A87EB9BE02B
S11301100197F1F700C00000CF91089560E00E94BC
S11301205A000895611104C080580E948E000895F9
S113013080540E948E00089581E00E948E000895EC
S113014061E00E945A000895CF93DF93EC01219659
S1130150FC018081882329F00E94A00089918111EB
S1130160FBCFDF91CF910895CF93C82F209A559A52
S1130170219A549A559A569A579A8FEF99EF019764
S1130180F1F700C000005D9A5C9A0E9453008FE171
S11301909EE40197F1F700C000000E9453008FEF26
S11301A090E00197F1F700C000000E9453008FEF28
S11301B090E00197F1F700C000005C980E945300A2
S11301C08FEF90E00197F1F700C0000088E20E94F1
S11301D08E0088E00E948E000E949C0086E00E94AF
S11301E08E008C2F0E948E00CF9108958CE00E9487
S11301F0B40060E081E00E94920080E091E00E94FF
S1130200A40061E083E00E94920087E091E00E94F4
S1130210A400ECE7F0E080818064808380818F77A4
S113022080838081807F8083EAE7F0E0808180683A
S11302308083808188608083808181608083E1E81D
S1130240F0E080818B7F8083808183608083EFE610
S1130250F0E080818160808387E690E00E94C9029B
S11302607894FFCF1F920F920FB60F9211248F93A1
S1130270EF93FF93EAE7F0E0808180648083FF914D
S1130280EF918F910F900FBE0F901F9018951F92B2
S11302900F920FB60F921124FF920F931F932F9377
S11302A03F934F935F936F937F938F939F93AF93FA
S11302B0BF93EF93FF93CF93DF9300D000D0CDB7DC
S11302C0DEB7009178001091790080915C019091E3
S11302D05D010817190709F4EAC04AE0BE016F5F1F
S11302E07F4FC8010E94060360E088E00E949200EC
S11302F084E391E00E94A40060E088E00E94920000
S1130300CE0101960E94A400043185E0180778F517
S11303108CE091E00E94F702CE0101960E94F70260
S11303200115110509F4BEC0F12C00FDF3941695D6
S1130330079501151105C9F761E08FE00E9492004D
S1130340F0FE09C089E191E00E94F70284E291E0A5
S11303500E94A40008C086E291E00E94F70281E3B3
S113036091E00E94A400009178001091790040E18E
S1130370BE016F5F7F4FC8010E94060360E08DE0FD
S11303800E94920084E391E00E94A40060E08DE06A
S11303900E949200CE0101960E94A40061E088E0D0
S11303A00E94920083E391E00E94A400083F83E04E
S11303B0180760F061E088E00E9492008AE391E00F
S11303C00E94A4008FE391E00E94F702033011051C
S11303D080F461E088E00E94920081E491E00E9450
S11303E0A40081E491E00E94F7028FE391E00E946F
S11303F0F702C80183569109059780F461E088E00B
S11304000E94920087E491E00E94A40087E491E0B6
S11304100E94F7028FE391E00E94F702C801845F13
S11304209109059780F461E088E00E9492008AE4D3
S113043091E00E94A4008AE491E00E94F7028FE315
S113044091E00E94F702C80181599140059780F418
S113045061E088E00E9492008FE491E00E94A40091
S11304608FE491E00E94F7028FE391E00E94F7028B
S1130470C80188589240089780F461E088E00E949F
S1130480920084E591E00E94A40084E591E00E943A
S1130490F7028FE391E00E94F70210935D0100934D
S11304A05C0105C061E08FE00E94920054CF0F9080
S11304B00F900F900F90DF91CF91FF91EF91BF912B
S11304C0AF919F918F917F916F915F914F913F91E8
S11304D02F911F910F91FF900F900FBE0F901F90BF
S11304E018951F920F920FB60F9211242F938F938A
S11304F09F93EF93FF938091C0002091C6008C716D
S1130500E0916001EF5FEF7390915F01E91739F0BB
S1130510E0936001F0E0ED59FE4F208301C082E0DA
S113052090915E01892B80935E01FF91EF919F91E1
S11305308F912F910F900FBE0F901F9018951F92BF
S11305400F920FB60F9211248F939F93EF93FF9303
S11305509091620180916101981769F0E0916101C5
S1130560EF5FEF73E0936101F0E0ED55FE4F8081A2
S11305708093C60005C0E1ECF0E080818F7D80832C
S1130580FF91EF919F918F910F900FBE0F901F904D
S113059018951092620110926101109260011092FC
S11305A05F0199231CF422E02093C000907890937B
S11305B0C5008093C40088E98093C10086E08093DD
S11305C0C2000895209162012F5F2F739091610101
S11305D02917E1F3E22FF0E0ED55FE4F80832093DD
S11305E06201E1ECF0E08081806280830895CF9322
S11305F0DF93EC018881882331F021960E94E20286
S113060089918111FBCFDF91CF910895BB274A30A7
S113061031F4992322F4BDE2909581959F4F0C9477
S11306201203BB27FB015527AA27880F991FAA1F6E
S1130630A41710F0A41B83955051B9F7A05DAA33F9
S113064008F0A95DA193009779F7B111B1931192C4
S1130650CB010C942B03DC01FC01672F71917723F0
S1130660E1F7329704C07C916D9370836291AE1769
S10D0670BF07C8F30895F894FFCF04
S113067A76616C75653A006B65793A0041444320AA
S113068A646563696D616C20002050415249545974
S113069A2031200031002050415249545920302041
S11306AA003000202020202020006E6F6E65000A92
S11306BA00524947485400555000444F574E004C85
S10F06CA4546540053454C454354000081
S9030000FC
