S00C00006770696F2E7372656369
S11300000C9434000C943E000C943E000C94C300F9
S11300100C943E000C943E000C943E000C943E0064
S11300200C943E000C943E000C943E000C943E0054
S11300300C943E000C943E000C943E000C943E0044
S11300400C943E000C943E000C943E000C943E0034
S11300500C943E000C943E000C943E000C943E0024
S11300600C943E000C943E0011241FBECFEFD8E048
S1130070DEBFCDBF0E948D000C94F6000C940000EE
S1130080FC01408121E030E002C0220F331F6A9559
S1130090E2F7242B20830895FC01808121E030E0E5
S11300A002C0220F331F6A95E2F7922F909589239D
S11300B0808380818181282B21830895FC01908194
S11300C021E030E002C0220F331F6A95E2F7209549
S11300D0292320830895FC01408121E030E002C0FF
S11300E0220F331F6A95E2F7242B20830895FC0125
S11300F0408121E030E002C0220F331F6A95E2F70D
S1130100242720830895FC01808190E002C0959506
S113011087956A95E2F78170089565E084E290E03E
S11301200E94400065E085E290E00E945E0060E08D
S113013087E290E00E94400060E088E290E00E9444
S11301406B0060E08AE290E00E944C00E8E6F0E098
S1130150808184608083EDE6F0E08081816080832B
S1130160789460E089E290E00E9483008111F9CFE5
S113017065E085E290E00E94770060E088E290E02C
S11301800E947700EECF1F920F920FB60F921124A8
S11301902F933F934F935F936F937F938F939F938B
S11301A0AF93BF93EF93FF9360E089E290E00E94E6
S11301B0830081110AC065E085E290E00E94770027
S11301C060E088E290E00E947700FF91EF91BF9198
S11301D0AF919F918F917F916F915F914F913F91DB
S11301E02F910F900FBE0F901F901895F894FFCF8A
S9030000FC
