S00E000030362D6C63642E7372656350
S11300000C9434000C9451000C9451000C94510045
S11300100C9451000C9451000C9451000C94510018
S11300200C9451000C9439010C9451000C9451001F
S11300300C9451000C94FD010C9451000C9451004B
S11300400C94BD020C9451000C9451000C9451007A
S11300500C9451000C9451000C9451000C945100D8
S11300600C9451000C94510011241FBECFEFD8E022
S1130070DEBFCDBF11E0A0E0B1E0E6E7F6E002C0EC
S113008005900D92A037B107D9F721E0A0E7B1E0C0
S113009001C01D92A737B207E1F70E94FA000C9441
S11300A039030C940000299A85E08A95F1F7000041
S11300B029980895CF93C82F662311F0289A01C078
S11300C02898549A559A569A579A5F985E985D98CC
S11300D05C98CC230CF45F9AC6FD5E9AC5FD5D9ACC
S11300E0C4FD5C9A0E9453005F985E985D985C988A
S11300F0C3FD5F9AC2FD5E9AC1FD5D9AC0FD5C9A24
S11301000E9453005C9A5D9A5E9A5F9A87EB9BE02B
S11301100197F1F700C00000CF91089560E00E94BC
S11301205A00089561E00E945A000895611104C0C4
S113013080580E948E00089580540E948E00089575
S113014081E00E948E00089561E00E945A000895A3
S1130150CF93DF93EC012196FC018081882329F061
S11301600E94A40089918111FBCFDF91CF91089562
S1130170CF93C82F209A559A219A549A559A569AF1
S1130180579A8FEF99EF0197F1F700C000005D9A3D
S11301905C9A0E9453008FE19EE40197F1F700C03E
S11301A000000E9453008FEF90E00197F1F700C028
S11301B000000E9453008FEF90E00197F1F700C018
S11301C000005C980E9453008FEF90E00197F1F7D4
S11301D000C0000088E20E948E0088E00E948E0029
S11301E00E94A00086E00E948E008C2F0E948E0048
S11301F0CF9108958CE00E94B80080E40E948E00A4
S1130200C0E0D1E000E311E089910E949200C017A0
S1130210D107D1F780E80E948E0060E081E00E945F
S1130220960087E591E00E94A800E1EBF0E0808170
S113023087608083E0E7F0E0808181608083E1E88B
S1130240F0E080818B7F8083808183608083EFE610
S1130250F0E080818160808385B58D7F85BD85B523
S1130260856085BDEEE6F0E08081816080837894CE
S1130270FFCF1F920F920FB60F9211242F933F932B
S11302804F935F936F937F938F939F93AF93BF939A
S1130290EF93FF93CF93DF93CDB7DEB72697DEBFFF
S11302A0CDBF80E290E29A8389839C838B839E8373
S11302B08D83809176018F5F863018F48093760168
S11302C083C010927601809175018F5F8A3018F493
S11302D08093750116C010927501809174018F5F2F
S11302E08C3318F4809374010CC0109274018091C3
S11302F073018F5F8C3318F48093730102C01092E2
S11303007301809175014AE0BE016F5F7F4F90E0F9
S11303100E94040360E087E00E949600CE010196EB
S11303200E94A800809174014AE0BE016F5F7F4F74
S113033090E00E940403809174018A3028F460E004
S113034085E00E94960004C060E084E00E9496006C
S1130350CE0101960E94A800809173014AE0BE017B
S11303606F5F7F4F90E00E940403809173018A3095
S113037028F460E082E00E94960004C060E081E01E
S11303800E949600CE0101960E94A80080917401FB
S1130390811109C060E08BE00E9496008FE591E036
S11303A00E94A80011C04AE0BE016D5F7F4F889F84
S11303B0C00111240E94040360E08BE00E949600B7
S11303C0CE0103960E94A80026960FB6F894DEBFCD
S11303D00FBECDBFDF91CF91FF91EF91BF91AF9150
S11303E09F918F917F916F915F914F913F912F9149
S11303F00F900FBE0F901F9018951F920F920FB67B
S11304000F9211242F933F934F935F936F937F9396
S11304108F939F93AF93BF93EF93FF93CF93DF9308
S1130420CDB7DEB7A597DEBFCDBF80E2E0E3F1E054
S1130430DE01119601900D928A95E1F785E0E1E5E0
S1130440F1E0DE01919601900D928A95E1F761E069
S11304508BE00E949600809172018C3118F590E037
S1130460FE01E80FF91F218129A3FE01E80FF91FFE
S113047022812AA3FE01E80FF91F23812BA3FE0189
S1130480E80FF91F24812CA3FE01E80FF91F8581D1
S11304908DA3CE0181960E94A800809172018F5F86
S11304A080937201809172018F3171F488A189A3C4
S11304B080E28AA38BA38CA38DA3CE0181960E9494
S11304C0A8001092720129C08E3189F48F8D89A3FE
S11304D088A18AA380E28BA38CA38DA3CE018196ED
S11304E00E94A800809172018F5F809372018091B5
S11304F072018D3191F48E8D89A38F8D8AA388A189
S11305008BA380E28CA38DA3CE0181960E94A800C8
S1130510809172018F5F80937201809172018C319E
S113052099F48D8D89A38E8D8AA38F8D8BA388A139
S11305308CA380E28DA3CE0181960E94A8008091B5
S113054072018F5F80937201A5960FB6F894DEBF97
S11305500FBECDBFDF91CF91FF91EF91BF91AF91CE
S11305609F918F917F916F915F914F913F912F91C7
S11305700F900FBE0F901F9018951F920F920FB6F9
S11305800F9211242F933F934F935F936F937F9315
S11305908F939F93AF93BF93EF93FF9380917101D8
S11305A061E08F5F0E949600809170010E94A40018
S11305B0809170018F5F863018F48093700113C0AE
S11305C010927001809171018F5F809371018A3064
S11305D050F061E081E00E94960084E691E00E9480
S11305E0A80010927101FF91EF91BF91AF919F917B
S11305F08F917F916F915F914F913F912F910F90C8
S11306000FBE0F901F901895BB274A3031F49923E1
S113061022F4BDE2909581959F4F0C941003BB2763
S1130620FB015527AA27880F991FAA1FA41710F0AA
S1130630A41B83955051B9F7A05DAA3308F0A95DB6
S1130640A193009779F7B111B1931192CB010C9456
S11306502903DC01FC01672F71917723E1F73297BD
S113066004C07C916D9370836291AE17BF07C8F389
S10906700895F894FFCF89
S113067600000000000000001010101010101010F0
S113068618181818181818181C1C1C1C1C1C1C1CC0
S11306961E1E1E1E1E1E1E1E1F1F1F1F1F1F1F1F68
S11306A62020202049206C696B65204469676974A1
S11306B6616C20656C656374726F6E696373212067
S11306C60020202020200030303A30302E300030F8
S11306D62020200020202020202020202020000070
S9030000FC
