S00E000030362D6C63642E7372656350
S11300000C9434000C9451000C9451000C94510045
S11300100C9451000C9451000C9451000C94510018
S11300200C9451000C9441010C9451000C94510017
S11300300C9451000C9401020C9451000C94510046
S11300400C94C7020C9451000C9451000C94510070
S11300500C9451000C9451000C9451000C945100D8
S11300600C9451000C94510011241FBECFEFD8E022
S1130070DEBFCDBF11E0A0E0B1E0E8E8F6E002C0E9
S113008005900D92AC34B107D9F721E0ACE4B1E0AE
S113009001C01D92A535B207E1F70E94FA000C9445
S11300A042030C940000299A85E08A95F1F7000038
S11300B029980895CF93C82F662311F0289A01C078
S11300C02898549A559A569A579A5F985E985D98CC
S11300D05C98CC230CF45F9AC6FD5E9AC5FD5D9ACC
S11300E0C4FD5C9A0E9453005F985E985D985C988A
S11300F0C3FD5F9AC2FD5E9AC1FD5D9AC0FD5C9A24
S11301000E9453005C9A5D9A5E9A5F9A87EB9BE02B
S11301100197F1F700C00000CF91089560E00E94BC
S11301205A00089561E00E945A000895611104C0C4
S113013080580E948E00089580540E948E00089575
S113014081E00E948E00089561E00E945A000895A3
S1130150CF93DF93EC012196FC018081882329F061
S11301600E94A40089918111FBCFDF91CF91089562
S1130170CF93C82F209A559A219A549A559A569AF1
S1130180579A8FEF99EF0197F1F700C000005D9A3D
S11301905C9A0E9453008FE19EE40197F1F700C03E
S11301A000000E9453008FEF90E00197F1F700C028
S11301B000000E9453008FEF90E00197F1F700C018
S11301C000005C980E9453008FEF90E00197F1F7D4
S11301D000C0000088E20E948E0088E00E948E0029
S11301E00E94A00086E00E948E008C2F0E948E0048
S11301F0CF9108958CE00E94B80080E40E948E00A4
S1130200C0E0D1E008E211E089910E949200C01799
S1130210D107D1F780E80E948E0060E081E00E945F
S1130220960089E391E00E94A80060E08BE00E94C0
S1130230960081E491E00E94A800E1EBF0E0808167
S113024087608083E0E7F0E0808181608083E1E87B
S1130250F0E080818C7F8083808184608083EFE6FE
S1130260F0E080818160808385B58E7F85BD85B512
S1130270856085BDEEE6F0E08081816080837894BE
S1130280FFCF1F920F920FB60F9211242F933F931B
S11302904F935F936F937F938F939F93AF93BF938A
S11302A0EF93FF93CF93DF9300D0CDB7DEB780E217
S11302B090E29A838983809154018F5F863018F489
S11302C08093540189C010925401809153018F5F2F
S11302D08A3018F4809353012AC0109253018091FC
S11302E052018F5F8A3018F48093520120C010921B
S11302F05201809151018F5F873018F4809351012E
S113030016C010925101809150018F5F8A3018F409
S1130310809350010CC01092500180914F018F5F67
S1130320873018F480934F0102C010924F018091DE
S113033053014AE0BE016F5F7F4F90E00E940D03BE
S113034060E087E00E949600CE0101960E94A8001A
S1130350809152014AE0BE016F5F7F4F90E00E949E
S11303600D0360E085E00E949600CE0101960E9494
S1130370A800809151014AE0BE016F5F7F4F90E079
S11303800E940D0360E084E00E949600CE01019675
S11303900E94A800809150014AE0BE016F5F7F4F28
S11303A090E00E940D0360E082E00E949600CE017E
S11303B001960E94A80080914F014AE0BE016F5F40
S11303C07F4F90E00E940D0360E081E00E94960060
S11303D0CE0101960E94A8000F900F90DF91CF915B
S11303E0FF91EF91BF91AF919F918F917F916F9109
S11303F05F914F913F912F910F900FBE0F901F90DF
S113040018951F920F920FB60F9211242F933F93BA
S11304104F935F936F937F938F939F93AF93BF9308
S1130420EF93FF93CF93DF93CDB7DEB72F97DEBF64
S1130430CDBF8AE0E8E2F1E0DE01119601900D9271
S11304408A95E1F785E0E3E3F1E0DE011B96019094
S11304500D928A95E1F761E08BE00E94960080910D
S11304604E01863018F590E0FE01E80FF91F218156
S11304702B87FE01E80FF91F22812C87FE01E80F6C
S1130480F91F23812D87FE01E80FF91F24812E8790
S1130490FE01E80FF91F85818F87CE010B960E941C
S11304A0A80080914E018F5F80934E0180914E0190
S11304B0863099F48F818B8788858C8789858D8791
S11304C08A858E8784E58F87CE010B960E94A800CB
S11304D080914E018F5F80934E0180914E01873051
S11304E099F488858B8789858C878A858D8784E5AF
S11304F08E8785E48F87CE010B960E94A800809199
S11305004E018F5F80934E0180914E01883099F4A3
S113051089858B878A858C8784E58D8785E48E879A
S113052083E58F87CE010B960E94A80080914E012F
S11305308F5F80934E0180914E01893079F48A85D2
S11305408B8784E58C8795E49D8793E59E878F87C9
S1130550CE010B960E94A80010924E012F960FB662
S1130560F894DEBF0FBECDBFDF91CF91FF91EF9125
S1130570BF91AF919F918F917F916F915F914F91B7
S11305803F912F910F900FBE0F901F9018951F92BF
S11305900F920FB60F9211242F933F934F935F93B3
S11305A06F937F938F939F93AF93BF93EF93FF9337
S11305B080914D0161E08F5F0E94960080914C0113
S11305C00E94A40080914C018F5F80934C01853080
S11305D098F080914D018F5F80934D0110924C01F2
S11305E0883050F061E081E00E94960083E491E05D
S11305F00E94A80010924D01FF91EF91BF91AF911D
S11306009F918F917F916F915F914F913F912F9126
S11306100F900FBE0F901F901895BB274A3031F4EE
S1130620992322F4BDE2909581959F4F0C94190370
S1130630BB27FB015527AA27880F991FAA1FA417B8
S113064010F0A41B83955051B9F7A05DAA3308F0AC
S1130650A95DA193009779F7B111B1931192CB01E0
S11306600C943203DC01FC01672F71917723E1F7CD
S1130670329704C07C916D9370836291AE17BF076B
S10B0680C8F30895F894FFCFBC
S1130688101010101010101018181818181818181E
S11306981C1C1C1C1C1C1C1C1E1E1E1E1E1E1E1E7E
S11306A81F1F1F1F1F1F1F1F5445535420544558F5
S11306B854200020202020200030303A30302E30C2
S10F06C8006100202020202020202000C1
S9030000FC
