S00E000030362D6C63642E7372656350
S11300000C9434000C9451000C9451000C94510045
S11300100C9451000C9451000C9451000C94510018
S11300200C9451000C9441010C9451000C94510017
S11300300C9451000C9405020C9451000C94510042
S11300400C94CB020C9451000C9451000C9451006C
S11300500C9451000C9451000C9451000C945100D8
S11300600C9451000C94510011241FBECFEFD8E022
S1130070DEBFCDBF11E0A0E0B1E0E0E9F6E002C0F0
S113008005900D92A436B107D9F721E0A4E6B1E0BA
S113009001C01D92AB36B207E1F70E94FA000C943E
S11300A046030C940000299A85E08A95F1F7000034
S11300B029980895CF93C82F662311F0289A01C078
S11300C02898549A559A569A579A5F985E985D98CC
S11300D05C98CC230CF45F9AC6FD5E9AC5FD5D9ACC
S11300E0C4FD5C9A0E9453005F985E985D985C988A
S11300F0C3FD5F9AC2FD5E9AC1FD5D9AC0FD5C9A24
S11301000E9453005C9A5D9A5E9A5F9A87EB9BE02B
S11301100197F1F700C00000CF91089560E00E94BC
S11301205A00089561E00E945A000895611104C0C4
S113013080580E948E00089580540E948E00089575
S113014081E00E948E00089561E00E945A000895A3
S1130150CF93DF93EC012196FC018081882329F061
S11301600E94A40089918111FBCFDF91CF91089562
S1130170CF93C82F209A559A219A549A559A569AF1
S1130180579A8FEF99EF0197F1F700C000005D9A3D
S11301905C9A0E9453008FE19EE40197F1F700C03E
S11301A000000E9453008FEF90E00197F1F700C028
S11301B000000E9453008FEF90E00197F1F700C018
S11301C000005C980E9453008FEF90E00197F1F7D4
S11301D000C0000088E20E948E0088E00E948E0029
S11301E00E94A00086E00E948E008C2F0E948E0048
S11301F0CF9108958CE00E94B80080E40E948E00A4
S1130200C0E0D1E008E211E089910E949200C01799
S1130210D107D1F780E80E948E0060E081E00E945F
S113022096008EE291E00E94A80060E08BE00E94BC
S1130230960086E391E00E94A800E1EBF0E0808163
S113024087608083E0E7F0E0808181608083E1E87B
S1130250F0E080818B7F8083808183608083EFE600
S1130260F0E080818160808385B58E7F85BD85B512
S1130270856085BDEEE6F0E08081816080837894BE
S1130280FFCF1F920F920FB60F9211242F933F931B
S11302904F935F936F937F938F939F93AF93BF938A
S11302A0EF93FF93CF93DF93CDB7DEB72697DEBFEF
S11302B0CDBF80E290E29A8389839C838B839E8363
S11302C08D8380916A018F5F863018F480936A0170
S11302D083C010926A01809169018F5F8A3018F49B
S11302E08093690116C010926901809168018F5F43
S11302F08C3318F4809368010CC0109268018091CB
S113030067018F5F8C3318F48093670102C01092E9
S11303106701809169014AE0BE016F5F7F4F90E001
S11303200E94110360E087E00E949600CE010196CE
S11303300E94A800809168014AE0BE016F5F7F4F70
S113034090E00E941103809168018A3028F460E0F3
S113035085E00E94960004C060E084E00E9496005C
S1130360CE0101960E94A800809167014AE0BE0177
S11303706F5F7F4F90E00E941103809167018A3084
S113038028F460E082E00E94960004C060E081E00E
S11303900E949600CE0101960E94A80080916801F7
S11303A0811109C060E08BE00E94960088E391E02F
S11303B00E94A80011C04AE0BE016D5F7F4F889F74
S11303C0C00111240E94110360E08BE00E9496009A
S11303D0CE0103960E94A80026960FB6F894DEBFBD
S11303E00FBECDBFDF91CF91FF91EF91BF91AF9140
S11303F09F918F917F916F915F914F913F912F9139
S11304000F900FBE0F901F9018951F920F920FB66A
S11304100F9211242F933F934F935F936F937F9386
S11304208F939F93AF93BF93EF93FF93CF93DF93F8
S1130430CDB7DEB7A297DEBFCDBF8DE1EDE3F1E02E
S1130440DE01119601900D928A95E1F785E0E8E2CC
S1130450F1E0DE015E9601900D928A95E1F761E08C
S11304608BE00E94960080916601893118F590E036
S1130470FE01E80FF91F21812E8FFE01E80FF91FFD
S113048022812F8FFE01E80FF91F238128A3FE018B
S1130490E80FF91F248129A3FE01E80FF91F8581C4
S11304A08AA3CE014E960E94A800809166018F5FB8
S11304B080936601809166018C3189F48D8D8E8FD5
S11304C089E48F8F80E288A38CE689A389E68AA3D6
S11304D0CE014E960E94A800109266012CC08B316A
S11304E099F48C8D8E8F8D8D8F8F89E488A380E213
S11304F089A38CE68AA3CE014E960E94A80080911F
S113050066018F5F80936601809166018A3199F458
S11305108B8D8E8F8C8D8F8F8D8D88A389E489A38D
S113052080E28AA3CE014E960E94A80080916601C3
S11305308F5F8093660180916601893199F48A8D79
S11305408E8F8B8D8F8F8C8D88A38D8D89A389E45D
S11305508AA3CE014E960E94A800809166018F5F07
S113056080936601A2960FB6F894DEBF0FBECDBF8E
S1130570DF91CF91FF91EF91BF91AF919F918F91B7
S11305807F916F915F914F913F912F910F900FBE8B
S11305900F901F9018951F920F920FB60F9211246F
S11305A02F933F934F935F936F937F938F939F9377
S11305B0AF93BF93EF93FF938091650161E08F5FE9
S11305C00E949600809164010E94A40080916401BD
S11305D08F5F80936401853098F0809165018F5F0F
S11305E08093650110926401883050F061E081E0ED
S11305F00E9496008AE591E00E94A800109265018D
S1130600FF91EF91BF91AF919F918F917F916F91E6
S11306105F914F913F912F910F900FBE0F901F90BC
S11306201895BB274A3031F4992322F4BDE2909502
S113063081959F4F0C941D03BB27FB015527AA27C7
S1130640880F991FAA1FA41710F0A41B839550515B
S1130650B9F7A05DAA3308F0A95DA193009779F7D3
S1130660B111B1931192CB010C943603DC01FC015E
S1130670672F71917723E1F7329704C07C916D93D2
S113068070836291AE17BF07C8F30895F894FFCF43
S11306901010101010101010181818181818181816
S11306A01C1C1C1C1C1C1C1C1E1E1E1E1E1E1E1E76
S11306B01F1F1F1F1F1F1F1F20202020200030303E
S11306C03A30302E30006100302020200049206C68
S11306D0696B65204469676974616C20656C656346
S11306E074726F6E69637321200020202020202003
S10706F020200000C2
S9030000FC
