S00B000050574D2E7372656325
S11300000C9434000C943E000C943E000C943E007E
S11300100C943E000C943E000C943E000C943E0064
S11300200C943E000C943E000C943E000C943E0054
S11300300C9495000C943E000C943E000C943E00ED
S11300400C943E000C943E000C943E000C943E0034
S11300500C943E000C943E000C943E000C943E0024
S11300600C943E000C943E0011241FBECFEFD8E048
S1130070DEBFCDBF0E9465000C94D0000C9400003C
S1130080FC01408121E030E002C0220F331F6A9559
S1130090E2F7242B20830895FC01908121E030E0D5
S11300A002C0220F331F6A95E2F72095292320838B
S11300B00895FC01408121E030E002C0220F331F8B
S11300C06A95E2F724272083089562E084E290E0B1
S11300D00E94400062E085E290E00E944C00E0E86B
S11300E0F0E08081806280838081108280818B60D7
S11300F0808380811082E1E8F0E080818B608083DE
S11301008081108280818A7F808380818260808365
S11301108FEF91E090938B0080938A00EFE6F0E0FC
S11301208081846080837894FFCF1F920F920FB6F2
S11301300F9211242F933F934F935F936F937F9369
S11301408F939F93AF93BF93EF93FF9362E085E206
S113015090E00E94590080918A0090918B00811553
S1130160944038F4EAE8F0E080819181019691832B
S113017080838FEF91E090938B0080938A00FF91AE
S1130180EF91BF91AF919F918F917F916F915F910B
S11301904F913F912F910F900FBE0F901F90189584
S10701A0F894FFCFFD
S9030000FC
