S01100006D6F727365636F64652E7372656352
S11300000C9434000C943E000C943E000C943E007E
S11300100C943E000C943E000C943E000C943E0064
S11300200C943E000C943E000C943E000C943E0054
S11300300C943E000C943E000C943E000C943E0044
S11300400C943E000C943E000C943E000C943E0034
S11300500C943E000C943E000C943E000C943E0024
S11300600C943E000C943E0011241FBECFEFD8E048
S1130070DEBFCDBF0E9440000C9410010C94000020
S1130080259A2D9890E22FEF39E648E1215030402F
S11300904040E1F700C0000085B1892785B95FEFD2
S11300A08DE329E4515080402040E1F700C0000076
S11300B02D983FEF49E658E1315040405040E1F778
S11300C000C0000085B1892785B98FEF29E638E1A2
S11300D0815020403040E1F700C000002D984FEFE0
S11300E059E688E1415050408040E1F700C00000EB
S11300F085B1892785B92FEF39E648E12150304091
S11301004040E1F700C000002D985FEF89E628E148
S1130110515080402040E1F700C000003FEF4DE324
S113012059E4315040405040E1F700C0000085B12F
S1130130892785B98FEF29E638E181502040304086
S1130140E1F700C000002D984FEF5DE389E44150D2
S113015050408040E1F700C0000085B1892785B98F
S11301602FEF39E648E1215030404040E1F700C02C
S113017000002D985FEF89E628E15150804020402F
S1130180E1F700C0000085B1892785B93FEF49E652
S113019058E1315040405040E1F700C000002D9834
S11301A08FEF29E638E1815020403040E1F700C06C
S11301B0000023E030E085B1892785B94FEF5DE386
S11301C089E4415050408040E1F700C000002D9880
S11301D04FEF59E688E1415050408040E1F700C0BC
S11301E000002150310939F72FEF39E648E1215059
S11301F030404040E1F700C000005FEF89E628E1AD
S1130200515080402040E1F700C000003FEF4DE333
S113021059E4315040405040E1F700C0000033CF72
S1070220F894FFCF7C
S9030000FC
