S00F000068632D737230342E73726563D4
S11300000C9434000C9451000C9451000C94510045
S11300100C9451000C9451000C9451000C94510018
S11300200C9451000C9451000C9451000C94510008
S11300300C9451000C9451000C94BD000C9451008C
S11300400C9451000C9451000C9495010C94C30130
S11300500C9451000C9451000C9451000C945100D8
S11300600C9451000C94510011241FBECFEFD8E022
S1130070DEBFCDBF11E0A0E0B1E0E0E8F7E002C0F0
S113008005900D92AC33B107D9F721E0ACE3B1E0B0
S113009001C01D92AA38B207E1F70E948A000C94AD
S11300A0BE030C940000FC01408121E030E002C05A
S11300B0220F331F6A95E2F7242B20830895FC0155
S11300C0808121E030E002C0220F331F6A95E2F7FD
S11300D0922F90958923808380818181282B21838D
S11300E00895FC01908121E030E002C0220F331F0B
S11300F06A95E2F72095292320830895FC01408125
S113010021E030E002C0220F331F6A95E2F7242B6E
S11301102083089561E084E290E00E94530061E04E
S113012085E290E00E94710062E084E290E00E9427
S11301305F0087E087BD85B5897F85BD85B5816012
S113014085BD84B5826084BD84B58E7F84BD85B54C
S1130150877F85BDEEE6F0E080818260808387E65C
S113016090E00E94ED0186E091E00E941B027894E9
S113017086E091E00E941B02FBCF1F920F920FB604
S11301800F921124CF92DF92EF92FF922F933F931D
S11301904F935F936F937F938F939F93AF93BF938B
S11301A0EF93FF93CF93DF93CDB7DEB72597DEBFF1
S11301B0CDBF85E0E0E0F1E0DE01119601900D9203
S11301C08A95E1F7809143019091440101969093BF
S11301D0440180934301209142012130A9F018F099
S11301E02230F1F084C00B9730F461E085E290E0B6
S11301F00E947E007EC061E085E290E00E94710072
S113020081E08093420175C01A9B73C080914001C4
S1130210909141010196909341018093400169C0FE
S1130220609140017091410180E090E00E9465027C
S113023026E933E44BE85CE30E94F40260933C015A
S113024070933D0180933E0190933F0120E030E0A4
S113025040E050E40E942A02882324F48BE091E0D9
S11302600E941B02C0903C01D0903D01E0903E01F1
S1130270F0903F0120E030E048EC53E4C701B601C0
S11302800E942A028823A4F4C701B6010E942F0207
S1130290DC01CB014AE0BE016F5F7F4F0E948903FE
S11302A08AE191E00E941B02CE0101960E941B028A
S11302B020E030E048EC53E460913C0170913D0152
S11302C080913E0190913F010E94EF02181624F4A0
S11302D089E291E00E941B021092440110924301B2
S11302E010924101109240011092420102C01092FA
S11302F042010F900F900F900F900F90DF91CF91CC
S1130300FF91EF91BF91AF919F918F917F916F91E9
S11303105F914F913F912F91FF90EF90DF90CF909D
S11303200F900FBE0F901F9018951F920F920FB64B
S11303300F9211242F938F939F93EF93FF938091A8
S1130340C0002091C6008C71E0914701EF5FEF710E
S113035090914601E91739F0E0934701F0E0E65B3C
S1130360FE4F208301C082E090914501892B809348
S11303704501FF91EF919F918F912F910F900FBEA7
S11303800F901F9018951F920F920FB60F92112481
S11303908F939F93EF93FF9390914901809148012C
S11303A0981769F0E0914801EF5FEF71E09348011D
S11303B0F0E0E659FE4F80818093C60005C0E1EC71
S11303C0F0E080818F7D8083FF91EF919F918F91E9
S11303D00F900FBE0F901F90189510924901109224
S11303E04801109247011092460199231CF422E01F
S11303F02093C00090789093C5008093C40088E94E
S11304008093C10086E08093C20008952091490141
S11304102F5F2F71909148012917E1F3E22FF0E04B
S1130420E659FE4F808320934901E1ECF0E080819E
S1130430806280830895CF93DF93EC0188818823C1
S113044031F021960E94060289918111FBCFDF9140
S1130450CF9108950E94A20208F481E008950E94B9
S113046036026894B1110C94E90208950E94CE02F8
S113047088F09F5798F0B92F9927B751B0F0E1F061
S1130480660F771F881F991F1AF0BA95C9F714C011
S1130490B13091F00E94E802B1E008950C94E802B2
S11304A0672F782F8827B85F39F0B93FCCF386954A
S11304B077956795B395D9F73EF4909580957095A7
S11304C061957F4F8F4F9F4F0895E89409C097FB24
S11304D03EF490958095709561957F4F8F4F9F4F17
S11304E09923A9F0F92F96E9BB279395F69587955B
S11304F077956795B795F111F8CFFAF4BB0F11F41E
S113050060FF1BC06F5F7F4F8F4F9F4F16C08823C4
S113051011F096E911C0772321F09EE8872F762FFA
S113052005C0662371F096E8862F70E060E02AF03B
S11305309A95660F771F881FDAF7880F9695879527
S113054097F90895990F0008550FAA0BE0E8FEEFFC
S113055016161706E807F907C0F012161306E40783
S1130560F50798F0621B730B840B950B39F40A267C
S113057061F0232B242B252B21F408950A2609F45A
S1130580A140A6958FEF811D811D089557FD9058B8
S1130590440F551F59F05F3F71F04795880F97FB43
S11305A0991F61F09F3F79F08795089512161306FD
S11305B01406551FF2CF4695F1DF08C0161617062C
S11305C01806991FF1CF8695710561050894089561
S11305D0E894BB2766277727CB0197F908950E94F3
S11305E0A20208F48FEF08950E9407030C94780385
S11305F00E946A0338F00E94710320F0952311F0E1
S11306000C9461030C94670311240C94E9020E9476
S1130610C60270F3959FC1F3950F50E0551F629F7A
S1130620F001729FBB27F00DB11D639FAA27F00D47
S1130630B11DAA1F649F6627B00DA11D661F829F6E
S11306402227B00DA11D621F739FB00DA11D621F53
S1130650839FA00D611D221F749F3327A00D611D70
S1130660231F849F600D211D822F762F6A2F112452
S11306709F5750409AF0F1F088234AF0EE0FFF1F85
S1130680BB1F661F771F881F91505040A9F79E3FDC
S1130690510580F00C9461030C94E9025F3FE4F38C
S11306A0983ED4F3869577956795B795F795E79532
S11306B09F5FC1F7FE2B880F911D9695879597F93B
S11306C0089597F99F6780E870E060E008959FEFD0
S11306D080EC089500240A941616170618060906D5
S11306E0089500240A9412161306140605060895A4
S11306F0092E0394000C11F4882352F0BB0F40F42C
S1130700BF2B11F460FF04C06F5F7F4F8F4F9F4F6B
S11307100895BB274A3031F4992322F4BDE2909521
S113072081959F4F0C949503BB27FB015527AA275E
S1130730880F991FAA1FA41710F0A41B839550516A
S1130740B9F7A05DAA3308F0A95DA193009779F7E2
S1130750B111B1931192CB010C94AE03DC01FC01F5
S1130760672F71917723E1F7329704C07C916D93E1
S113077070836291AE17BF07C8F30895F894FFCF52
S113078020202020200061686F6A00736D616C6C0A
S11307906572207468616E203200567A6469616CF7
S11307A0656E6F7374206A65004E6F206F626A65B0
S10F07B06374206F72203E20343030004F
S9030000FC
