S012000030352D7365676D656E742E737265638D
S11300000C9434000C9451000C9451000C94CC00CA
S11300100C9451000C94FD000C9451000C9451006C
S11300200C9451000C9451000C9451000C94510008
S11300300C9451000C94BE010C9451000C9451008A
S11300400C9463010C9451000C9451000C945100D5
S11300500C9451000C9451000C9451000C945100D8
S11300600C9451000C94510011241FBECFEFD8E022
S1130070DEBFCDBF11E0A0E0B1E0E2EDF5E002C0EB
S113008005900D92AE30B107D9F721E0AEE0B1E0B2
S113009001C01D92A331B207E1F70E9494000C94B1
S11300A0E7020C940000FC01408121E030E002C032
S11300B0220F331F6A95E2F7242B20830895FC0155
S11300C0808121E030E002C0220F331F6A95E2F7FD
S11300D0922F90958923808380818181282B21838D
S11300E00895FC01908121E030E002C0220F331F0B
S11300F06A95E2F72095292320830895FC01408125
S113010021E030E002C0220F331F6A95E2F7242B6E
S113011020830895FC01808190E002C09595879525
S11301206A95E2F7817008950E94F20161E084E229
S113013090E00E945F00C8E6D0E0888181608883F7
S1130140EBE6F0E080818260808360E08AE290E008
S11301500E945F00888184608883EDE6F0E08081FE
S11301608160808385B58E7F85BD85B5856085BDBD
S1130170EEE6F0E0808181608083E1E8F0E0808158
S11301808B7F8083808183608083EFE6F0E08081D1
S1130190816080837894FFCF1F920F920FB60F92E5
S11301A011242F933F934F935F936F937F938F9378
S11301B09F93AF93BF93EF93FF9361E083E290E04B
S11301C00E948A00811108C010921101109210013E
S11301D010920F0110920E01FF91EF91BF91AF9118
S11301E09F918F917F916F915F914F913F912F914B
S11301F00F900FBE0F901F9018951F920F920FB67D
S11302000F9211242F933F934F935F936F937F9398
S11302108F939F93AF93BF93EF93FF9360E08AE232
S113022090E00E948A0081113DC0809112018130CA
S113023079F028F08230A9F08330E1F023C060E047
S1130240809111010E947E0281E08093120121C0FD
S113025061E0809110010E947E0282E0809312018D
S113026018C062E080910F010E947E0283E08093B7
S113027012010FC063E080910E010E947E02109271
S1130280120107C060E0809111010E947E02109269
S113029012012FEF87EA91E6215080409040E1F768
S11302A000C00000FF91EF91BF91AF919F918F919A
S11302B07F916F915F914F913F912F910F900FBE5E
S11302C00F901F9018951F920F920FB60F92112442
S11302D02F933F934F935F936F937F938F939F934A
S11302E0AF93BF93EF93FF9380911201813081F01C
S11302F028F08230B9F08330F9F027C041E060E0A3
S1130300809111010E94020281E08093120125C0B4
S113031041E061E0809110010E94020282E080933A
S113032012011BC040E062E080910F010E940202B2
S113033083E08093120111C041E063E080910E01DB
S11303400E9402021092120108C041E060E0809114
S113035011010E94020210921201FF91EF91BF91CC
S1130360AF919F918F917F916F915F914F913F9149
S11303702F910F900FBE0F901F9018951F920F9200
S11303800FB60F9211248F93809111018F5F8A30E1
S113039018F48093110120C0109211018091100172
S11303A08F5F863018F48093100116C010921001EC
S11303B080910F018F5F8A3018F480930F010CC075
S11303C010920F0180910E018F5F863018F4809394
S11303D00E0102C010920E018F910F900FBE0F906C
S11303E01F90189564E08AE290E00E94530067E051
S11303F08AE290E00E94530060E084E290E00E9470
S1130400530008951F93CF93DF93442331F0E82FD3
S1130410F0E0EC5FFE4FC08106C0E82FF0E0EC5F37
S1130420FE4FC081CE7FE62FF0E0E050FF4F1081F9
S113043060E085E290E00E94710067E08BE290E06A
S11304400E94710064E08BE290E00E94710085E0FC
S11304508A95F1F70000D8E0C0FD06C060E085E2AF
S113046090E00E94710005C060E085E290E00E9487
S11304707E0085E08A95F1F7000067E08BE290E06A
S11304800E947E0085E08A95F1F7000067E08BE228
S113049090E00E947100C695D150F1F6C8E010FDBD
S11304A006C060E085E290E00E94710005C060E053
S11304B085E290E00E947E0085E08A95F1F70000D5
S11304C067E08BE290E00E947E0085E08A95F1F778
S11304D0000067E08BE290E00E9471001695C15025
S11304E0F1F664E08BE290E00E947E0085E08A955C
S11304F0F1F70000DF91CF911F910895CF93DF931F
S113050060E085E290E00E94710067E08BE290E099
S11305100E94710064E08BE290E00E94710085E02B
S11305208A95F1F70000C8E0DFEFD0FD06C060E077
S113053085E290E00E94710005C060E085E290E0F1
S11305400E947E0085E08A95F1F7000067E08BE267
S113055090E00E947E0085E08A95F1F7000067E054
S11305608BE290E00E947100D695C150F1F6C8E08C
S1130570DFEFD0FD06C060E085E290E00E947100EC
S113058005C060E085E290E00E947E0085E08A95E7
S1130590F1F7000067E08BE290E00E947E0085E0C6
S11305A08A95F1F7000067E08BE290E00E94710009
S11305B0D695C150F1F664E08BE290E00E947E0093
S11305C085E08A95F1F70000DF91CF910895F894C2
S10505D0FFCF57
S11105D210204080039F250D9949411F010907
S9030000FC
