S012000030352D7365676D656E742E737265638D
S11300000C9434000C9451000C9451000C94510045
S11300100C9451000C9451000C9451000C94510018
S11300200C9451000C9498000C9451000C945100C1
S11300300C9451000C94F4000C9451000C94510055
S11300400C9451000C9451000C9451000C945100E8
S11300500C9451000C9451000C9451000C945100D8
S11300600C9451000C94510011241FBECFEFD8E022
S1130070DEBFCDBF11E0A0E0B1E0ECE6F3E002C0EA
S113008005900D92AE30B107D9F721E0AEE0B1E0B2
S113009001C01D92A331B207E1F70E9478000C94CD
S11300A0B4010C940000FC01408121E030E002C066
S11300B0220F331F6A95E2F7242B20830895FC0155
S11300C0908121E030E002C0220F331F6A95E2F7ED
S11300D02095292320830895FC01408121E030E00C
S11300E002C0220F331F6A95E2F7242B2083089560
S11300F00E94280140E060E080E00E943801E1EBCA
S1130100F0E0808187608083E0E7F0E080818160B7
S11301108083E1E8F0E080818B7F8083808183604D
S11301208083EFE6F0E08081816080837894FFCF64
S11301301F920F920FB60F9211242F933F934F9358
S11301405F936F937F938F939F93AF93BF93EF933B
S1130150FF9380910E01813081F028F08230B9F054
S11301608330F9F027C041E060E0809112010E94E1
S1130170380181E080930E0126C041E061E0809166
S113018011010E94380182E080930E011CC040E0FE
S113019062E0809110010E94380183E080930E0197
S11301A012C041E063E080910F010E943801109277
S11301B00E0109C041E060E0809112010E94380103
S11301C081E080930E01FF91EF91BF91AF919F91D8
S11301D08F917F916F915F914F913F912F910F90EC
S11301E00FBE0F901F9018951F920F920FB60F928B
S11301F011248F93809112018F5F8A3018F48093B9
S1130200120120C010921201809111018F5F86307B
S113021018F48093110116C01092110180911001FD
S11302208F5F8A3018F4809310010CC01092100173
S113023080910F018F5F863018F480930F0102C004
S113024010920F018F910F900FBE0F901F90189571
S113025064E08AE290E00E94530067E08AE290E062
S11302600E94530060E084E290E00E9453000895ED
S11302701F93CF93DF93442331F0E82FF0E0EC5F3A
S1130280FE4FC08106C0E82FF0E0EC5FFE4FC08156
S1130290CE7FE62FF0E0E050FF4F108160E085E272
S11302A090E00E945F0067E08BE290E00E945F00B4
S11302B064E08BE290E00E945F0085E08A95F1F7AC
S11302C00000D8E0C0FD06C060E085E290E00E9436
S11302D05F0005C060E085E290E00E946C0085E06C
S11302E08A95F1F7000067E08BE290E00E946C00D1
S11302F085E08A95F1F7000067E08BE290E00E94C8
S11303005F00C695D150F1F6C8E010FD06C060E06C
S113031085E290E00E945F0005C060E085E290E025
S11303200E946C0085E08A95F1F7000067E08BE29B
S113033090E00E946C0085E08A95F1F7000067E088
S11303408BE290E00E945F001695C150F1F664E0E4
S11303508BE290E00E946C0085E08A95F1F7000042
S10F0360DF91CF911F910895F894FFCF16
S111036C10204080039F250D9949411F01096F
S9030000FC
