S012000030352D7365676D656E742E737265638D
S11300000C9434000C9451000C9451000C94BF00D7
S11300100C9451000C9451000C9451000C94510018
S11300200C9451000C9451000C9451000C94510008
S11300300C9451000C944C010C9451000C945100FC
S11300400C94F0000C9451000C9451000C94510049
S11300500C9451000C9451000C9451000C945100D8
S11300600C9451000C94510011241FBECFEFD8E022
S1130070DEBFCDBF11E0A0E0B1E0ECE1F4E002C0EE
S113008005900D92AE30B107D9F721E0AEE0B1E0B2
S113009001C01D92A331B207E1F70E9494000C94B1
S11300A00C020C940000FC01408121E030E002C00D
S11300B0220F331F6A95E2F7242B20830895FC0155
S11300C0808121E030E002C0220F331F6A95E2F7FD
S11300D0922F90958923808380818181282B21838D
S11300E00895FC01908121E030E002C0220F331F0B
S11300F06A95E2F72095292320830895FC01408125
S113010021E030E002C0220F331F6A95E2F7242B6E
S113011020830895FC01808190E002C09595879525
S11301206A95E2F7817008950E948001E8E6F0E0A4
S1130130808181608083ECE6F0E08081826080834E
S113014061E084E290E00E945F0085B58D7F85BD0B
S113015085B5856085BDEEE6F0E0808181608083B1
S1130160E1E8F0E080818B7F8083808183608083FD
S1130170EFE6F0E08081816080837894FFCF1F9266
S11301800F920FB60F9211242F933F934F935F93C7
S11301906F937F938F939F93AF93BF93EF93FF934B
S11301A061E083E290E00E948A00811108C010920D
S11301B01201109211011092100110920F01FF917F
S11301C0EF91BF91AF919F918F917F916F915F91CB
S11301D04F913F912F910F900FBE0F901F90189544
S11301E01F920F920FB60F9211242F933F934F93A8
S11301F05F936F937F938F939F93AF93BF93EF938B
S1130200FF9380910E01813081F028F08230B9F0A3
S11302108330F9F027C041E060E0809112010E9430
S1130220900181E080930E0126C041E061E080915D
S113023011010E94900182E080930E011CC040E0F5
S113024062E0809110010E94900183E080930E018E
S113025012C041E063E080910F010E94900110926E
S11302600E0109C041E060E0809112010E949001FA
S113027081E080930E01FF91EF91BF91AF919F9127
S11302808F917F916F915F914F913F912F910F903B
S11302900FBE0F901F9018951F920F920FB60F92DA
S11302A011248F93809112018F5F8A3018F4809308
S11302B0120120C010921201809111018F5F8630CB
S11302C018F48093110116C010921101809110014D
S11302D08F5F8A3018F4809310010CC010921001C3
S11302E080910F018F5F863018F480930F0102C054
S11302F010920F018F910F900FBE0F901F901895C1
S113030064E08AE290E00E94530067E08AE290E0B1
S11303100E94530060E084E290E00E94530008953C
S11303201F93CF93DF93442331F0E82FF0E0EC5F89
S1130330FE4FC08106C0E82FF0E0EC5FFE4FC081A5
S1130340CE7FE62FF0E0E050FF4F108160E085E2C1
S113035090E00E94710067E08BE290E00E947100DF
S113036064E08BE290E00E94710085E08A95F1F7E9
S11303700000D8E0C0FD06C060E085E290E00E9485
S1130380710005C060E085E290E00E947E0085E097
S11303908A95F1F7000067E08BE290E00E947E000E
S11303A085E08A95F1F7000067E08BE290E00E9417
S11303B07100C695D150F1F6C8E010FD06C060E0AA
S11303C085E290E00E94710005C060E085E290E063
S11303D00E947E0085E08A95F1F7000067E08BE2D9
S11303E090E00E947E0085E08A95F1F7000067E0C6
S11303F08BE290E00E9471001695C150F1F664E022
S11304008BE290E00E947E0085E08A95F1F700007F
S10F0410DF91CF911F910895F894FFCF65
S111041C10204080039F250D9949411F0109BE
S9030000FC
