S00D0000536E616B652E7372656325
S11300000C9434000C9451000C9451000C94510045
S11300100C9451000C9451000C9451000C94510018
S11300200C9451000C9451000C9451000C94510008
S11300300C9451000C9498000C9451000C945100B1
S11300400C9451000C9451000C9451000C945100E8
S11300500C9451000C9451000C9451000C945100D8
S11300600C9451000C94510011241FBECFEFD8E022
S1130070DEBFCDBF11E0A0E0B1E0E6EDF2E002C0EA
S113008005900D92AC30B107D9F721E0ACE0B1E0B6
S113009001C01D92AE30B207E1F70E9478000C94C3
S11300A069010C940000FC01408121E030E002C0B1
S11300B0220F331F6A95E2F7242B20830895FC0155
S11300C0908121E030E002C0220F331F6A95E2F7ED
S11300D02095292320830895FC01408121E030E00C
S11300E002C0220F331F6A95E2F7242B2083089560
S11300F00E94E60060E080E00E94F60085B58E7FF5
S113010085BD85B5856085BDEEE6F0E080818160C2
S11301108083E1E8F0E080818A7F8083808182604F
S11301208083EFE6F0E08081816080837894FFCF64
S11301301F920F920FB60F9211242F933F934F9358
S11301405F936F937F938F939F93AF93BF93EF933B
S1130150FF9360910C0180910D010E94F600909133
S11301600D0181E0890F80930D01843061F4809149
S11301700C01282F30E022303105BCF48F5F8093CE
S11301800C0190930D0180910D01873071F48091E1
S11301900C01882339F0815080930C0186E0809310
S11301A00D0103C081E080930D01FF91EF91BF9198
S11301B0AF919F918F917F916F915F914F913F91FB
S11301C02F910F900FBE0F901F90189564E08AE254
S11301D090E00E94530067E08AE290E00E9453009E
S11301E060E084E290E00E94530008951F93CF934F
S11301F0DF93E82FF0E0E050FF4F1081E62FF0E0AE
S1130200E95FFE4FD08160E085E290E00E945F00EC
S113021067E08BE290E00E945F0064E08BE290E094
S11302200E945F0085E08A95F1F70000C8E010FDA8
S113023006C060E085E290E00E945F0005C060E0D7
S113024085E290E00E946C0085E08A95F1F7000059
S113025067E08BE290E00E946C0085E08A95F1F7FC
S1130260000067E08BE290E00E945F001695C150A9
S1130270F1F6C8E0D0FD06C060E085E290E00E949F
S11302805F0005C060E085E290E00E946C0085E0BC
S11302908A95F1F7000067E08BE290E00E946C0021
S11302A085E08A95F1F7000067E08BE290E00E9418
S11302B05F00D695C150F1F664E08BE290E00E94B5
S11302C06C0085E08A95F1F70000DF91CF911F91D2
S10902D00895F894FFCF2D
S10F02D67FBFDFEFF7FB7F1020408000AB
S9030000FC
